:020000040800F2
:10000000000002205909000855090008995100080C
:1000100055090008550900085509000800000000AE
:10002000000000000000000000000000550900086A
:100030005509000800000000550900088951000812
:100040005509000855090008550900085509000818
:100050005509000855090008550900085509000808
:10006000550900085509000855090008B93F00085E
:10007000C53F0008112F0008D13F0008DD3F0008F0
:10008000354F0008E53400085509000855090008F7
:1000900055090008550900085509000855090008C8
:1000A00055090008550900085509000855090008B8
:1000B00055090008550900085509000819350008B8
:1000C000550900082535000855090008A1CF00088A
:1000D0005509000825490008CD490008794A00085B
:1000E00055090008550900080000000055090008DE
:1000F000550900085509000855090008ADCF00084A
:100100005509000855090008550900085509000857
:10011000254B0008D14B0008550900085509000877
:100120005509000855090008550900085509000837
:100130005509000855090008550900085509000827
:1001400000000000000000000000000000000000AF
:100150005509000855090008550900087D4C00089C
:1001600031350008550900085509000855090008EF
:1001700055090008550900085509000855090008E7
:100180005509000855090008294D0008D54D0008FB
:1001900055090008550900085509000855090008C7
:1001A00055090008550900085509000855090008B7
:1001B000D93C0008550900085509000855090008F0
:1001C0005509000855090008550900085509000897
:1001D0005509000855090008550900085509000887
:1001E0005509000855090008550900085509000877
:1001F0005509000855090008550900085509000867
:100200005509000855090008550900085509000856
:100210005509000855090008550900085509000846
:10022000550900085509000855090008000000009C
:10023000550900085509000800000000550900088C
:100240005509000855090008550900085509000816
:100250005509000855090008550900085509000806
:1002600055090008550900085509000855090008F6
:100270005509000855090008814E000800000000DB
:10028000550900085509000855090008000000003C
:08029000000000005509000800
:1002980010B5054C237833B9044B13B10448AFF3B8
:1002A80000800123237010BDB80200240000000064
:1002B800B804010808B5034B1BB103490348AFF361
:1002C800008008BD00000000BC020024B80401083A
:1002D80081F0004102E000BF83F0004330B54FEAEF
:1002E80041044FEA430594EA050F08BF90EA020F5C
:1002F8001FBF54EA000C55EA020C7FEA645C7FEAEF
:10030800655C00F0E2804FEA5454D4EB5555B8BF11
:100318006D420CDD2C4480EA020281EA030382EA82
:10032800000083EA010180EA020281EA0303362D14
:1003380088BF30BD11F0004F4FEA01314FF4801CE7
:100348004CEA113102D0404261EB410113F0004FF9
:100358004FEA03334CEA133302D0524263EB4303B0
:1003680094EA050F00F0A780A4F10104D5F1200E4E
:100378000DDB02FA0EFC22FA05F2801841F10001A9
:1003880003FA0EF2801843FA05F359410EE0A5F17D
:1003980020050EF1200E012A03FA0EFC28BF4CF0AE
:1003A800020C43FA05F3C01851EBE37101F0004564
:1003B80007D54FF0000EDCF1000C7EEB00006EEB71
:1003C8000101B1F5801F1BD3B1F5001F0CD34908FB
:1003D8005FEA30004FEA3C0C04F101044FEA445252
:1003E80012F5800F80F09A80BCF1004F08BF5FEAD9
:1003F800500C50F1000041EB045141EA050130BDB9
:100408005FEA4C0C404141EB0101013C28BFB1F5CA
:10041800801FE9D291F0000F04BF01460020B1FA15
:1004280081F308BF2033A3F10B03B3F120020CDAE8
:100438000C3208DD02F1140CC2F10C0201FA0CF0C6
:1004480021FA02F10CE002F11402D8BFC2F1200C2B
:1004580001FA02F120FA0CFCDCBF41EA0C019040E1
:10046800E41AA2BF01EB0451294330BD6FEA04042A
:100478001F3C1CDA0C340EDC04F11404C4F1200215
:1004880020FA04F001FA02F340EA030021FA04F327
:1004980045EA030130BDC4F10C04C4F1200220FA7E
:1004A80002F001FA04F340EA0300294630BD21FABC
:1004B80004F0294630BD94F0000F83F4801306BF82
:1004C80081F480110134013D4EE77FEA645C18BF76
:1004D8007FEA655C29D094EA050F08BF90EA020F0D
:1004E80005D054EA000C04BF1946104630BD91EA05
:1004F800030F1EBF0021002030BD5FEA545C05D108
:100508004000494128BF41F0004130BD14F5800446
:100518003CBF01F5801130BD01F0004545F0FE41BA
:1005280041F470014FF0000030BD7FEA645C1ABFEF
:10053800194610467FEA655C1CBF0B46024650EA26
:10054800013406BF52EA033591EA030F41F4002152
:1005580030BD00BF90F0000F04BF0021704730B5D8
:100568004FF4806404F132044FF000054FF00001AD
:1005780050E700BF90F0000F04BF0021704730B56E
:100588004FF4806404F1320410F0004548BF404243
:100598004FF000013EE700BF42004FEAE2014FEA98
:1005A80031014FEA02701FBF12F07F4393F07F4F73
:1005B80081F06051704732F07F4208BF704793F076
:1005C8007F4F04BF41F40021704730B54FF4607489
:1005D80001F0004521F000411CE700BF50EA01028C
:1005E80008BF704730B54FF000050AE050EA010235
:1005F80008BF704730B511F0004502D5404261EBA5
:1006080041014FF4806404F132045FEA915C3FF4E5
:10061800D8AE4FF003025FEADC0C18BF03325FEA82
:10062800DC0C18BF033202EBDC02C2F1200300FA33
:1006380003FC20FA02F001FA03FE40EA0E0021FA58
:1006480002F11444BDE600BF53B94AB9002908BFF6
:1006580000281CBF4FF0FF314FF0FF3000F074B995
:10066800ADF1080C6DE904CE00F006F8DDF804E001
:10067800DDE9022304B070472DE9F047089D0446E0
:100688008E46002B4DD18A42944669D9B2FA82F23D
:1006980052B101FA02F3C2F1200120FA01F10CFA79
:1006A80002FC41EA030E94404FEA1C48210CBEFBB1
:1006B800F8F61FFA8CF708FB16E341EA034306FB3A
:1006C80007F199420AD91CEB030306F1FF3080F0C9
:1006D8001F81994240F21C81023E63445B1AA4B216
:1006E800B3FBF8F008FB103344EA034400FB07F7B8
:1006F800A7420AD91CEB040400F1FF3380F00A81F9
:10070800A74240F207816444023840EA0640E41BED
:1007180000261DB1D4400023C5E900433146BDE899
:10072800F0878B4209D9002D00F0EF800026C5E93B
:10073800000130463146BDE8F087B3FA83F6002E53
:100748004AD18B4202D3824200F2F980841A61EBCB
:10075800030301209E46002DE0D0C5E9004EDDE7E9
:1007680002B9FFDEB2FA82F2002A40F09280A1EBD1
:100778000C014FEA1C471FFA8CFE0126200CB1FB26
:10078800F7F307FB131140EA01410EFB03F088421F
:1007980008D91CEB010103F1FF3802D2884200F2AC
:1007A800CB804346091AA4B2B1FBF7F007FB10113E
:1007B80044EA01440EFB00FEA64508D91CEB0404DC
:1007C80000F1FF3102D2A64500F2BB800846A4EB37
:1007D8000E0440EA03409CE7C6F12007B34022FA22
:1007E80007FC4CEA030C20FA07F401FA06F31C4351
:1007F800F9404FEA1C4900FA06F3B1FBF9F8200C5E
:100808001FFA8CFE09FB181140EA014108FB0EF0A3
:10081800884202FA06F20BD91CEB010108F1FF3AF3
:1008280080F08880884240F28580A8F102086144FF
:10083800091AA4B2B1FBF9F009FB101144EA01410D
:1008480000FB0EFE8E4508D91CEB010100F1FF34B8
:100858006CD28E456AD90238614440EA0840A0FB50
:100868000294A1EB0E01A142C846A64656D353D026
:100878005DB1B3EB080261EB0E0101FA07F722FA4A
:1008880006F3F1401F43C5E9007100263146BDE873
:10089800F087C2F12003D8400CFA02FC21FA03F3D6
:1008A800914001434FEA1C471FFA8CFEB3FBF7F057
:1008B80007FB10360B0C43EA064300FB0EF69E427C
:1008C80004FA02F408D91CEB030300F1FF382FD215
:1008D8009E422DD9023863449B1B89B2B3FBF7F6BD
:1008E80007FB163341EA034106FB0EF38B4208D996
:1008F8001CEB010106F1FF3816D28B4214D9023ED7
:100908006144C91A46EA004638E72E46284605E7F4
:100918000646E3E61846F8E64B45A9D2B9EB0208C5
:1009280064EB0C0E0138A3E74646EAE7204694E755
:100938004046D1E7D0467BE7023B614432E7304688
:1009480009E76444023842E7704700BFFEE700BF8A
:100958000B480C4A904203D0121A0B490FF0DEF8EC
:100968000A480B4A904203D0121A00210FF0E4F80B
:1009780000F0B4FB0FF0AEF800F098FAFEE700BF05
:1009880000000024B4020024E4040108B802002492
:10099800D4C00024704700BF704700BF704700BF35
:1009A8002DE9F0417D4C4FF07C58DFED7D0A40F297
:1009B800011704F13C0E7B4E7B4D2DED048B88B066
:1009C800F0EE408AB3EE080A9FED788AEC469FED78
:1009D800789ABEE80F00ACE80F009EE80F008CE89C
:1009E8000F0069460022734800F0F2FA04F13C0E49
:1009F800EC46F2EE000AB7EE000ABEE80F00ACE8DB
:100A08000F009EE80F008CE80F00694600226A4834
:100A180000F0DEFA04F15C0EEC4600EE108AF7EE08
:100A2800000ABEE80F00ACE80F009EE80F008CE853
:100A38000F0069460022614800F0CAFA04F17C0EF2
:100A4800EC46B0EE480AF1EE0C0ABEE80F00ACE83E
:100A58000F009EE80F008CE80F00694600225848F6
:100A680000F0B6FA04F19C0EEC46B0EE480AF0EE3F
:100A7800040ABEE80F00ACE80F009EE80F008CE8FF
:100A88000F00694600224F4800F0A2FA04F1BC0E9C
:100A9800EC4600EE108AF0EE000ABEE80F00ACE863
:100AA8000F009EE80F008CE80F00694600224648B8
:100AB80000F08EFA04F1DC0EEC46B0EE480AF7EED0
:100AC800000ABEE80F00ACE80F009EE80F008CE8B3
:100AD8000F00694600223D4800F07AFA04F1FC0C48
:100AE8006C46FEEE000A00EE108ABCE80F000FC448
:100AF8009CE80F0084E80F0069460022344800F0A3
:100B080067FAF7EE007A3046B0EE490AC6ED068A73
:100B1800C7EEA89A86ED019A86ED028AC6F80C807F
:100B280086ED048A86ED058AC6F8008086ED088A77
:100B3800284CC6ED079A0DF01FFDF0EE407A2846C6
:100B4800B0EE490A86ED0A8AB785C6ED097AC5ED81
:100B5800068AC5ED079A85ED019A85ED028AC5F8E2
:100B68000C8085ED048A85ED058AC5F8008085ED41
:100B7800088A0DF001FD002317481849184A85ED29
:100B88000A8A85ED090AAF85236003600B6013604C
:100B980008B0BDEC048BBDE8F08100BF040300245D
:100BA8000000A84294960024C49600240000000087
:100BB8000000DC43649700249C9700247C98002460
:100BC800449800242C970024D49700240C980024DF
:100BD800F4960024E8020024DC020024F002002439
:100BE800F40200242DE9F84F5648574C00F020FA3B
:100BF800564D5748DFF8949184ED000A00F018FA32
:100C08005448DFF88C8185ED000A00F011FA52484B
:100C1800524F89ED000A00F00BFA5148DFF874A131
:100C280088ED000A00F004FA4E484F4E87ED000A9E
:100C380000F0FEF94D488AED000A00F0F9F94C4839
:100C480086ED000A00F0F4F94A4BDFF84CB11B6856
:100C58008BED000A012B62D0022B59D05BB3F0EE6A
:100C6800407A454D454C99ED000AB6EE007A37EECC
:100C7800800AF7EE007AB4EEC70AF1EE10FAB4EE85
:100C8800E70A48BF84ED037AF1EE10FA0EDDC5EDF0
:100C9800037AC4ED037AD8F800203B683168AA606B
:100CA8002B61A26023616161BDE8F88F85ED030ABD
:100CB80084ED030AEFE7D4ED007AF2EE080A9FED1F
:100CC800307AB0EE000A77EEC77AC7EEA00A0DF0C8
:100CD800AFFEDFED2C7A284D284620EE270A84ED5A
:100CE800000A85ED010A0DF047FCD4ED007A9AED73
:100CF800007A224C85ED090A27EE870A204684ED02
:100D0800010A0DF039FCDBED007A84ED090AAAE747
:100D180095ED000ADFED1C7AB8FE400ADBE7D4ED5A
:100D2800007AF2EE080A9FED167AB0EE000AF8FE95
:100D3800677A77EEC77AC7EEA00A0DF079FEDFED85
:100D4800117AC8E764970024E0020024D402002442
:100D58009C9700247C9800244498002400030024D5
:100D68002C970024D4970024FC0200240C9800241B
:100D7800F4960024F002002494960024C4960024DB
:100D880000008A420000DC4312D00242F80200242C
:100D9800EC020024E4020024D8020024214922485D
:100DA80000B591F8F13102687F2B204B91F8FDC115
:100DB80008BF0132BCF17F0F83FB02E3A3EBE273B0
:100DC80003EB4303A2EB030303601948036808BF5E
:100DD80001335A4203F0030302F0030258BF53429F
:100DE80091F8092291F8151203607F2A11480F4BD8
:100DF800026808BF01327F2983FB02C3A3EBE273B9
:100E080003EB4303A2EB03030B4A0360136808BF19
:100E18000133002B03F00103B8BF5B4213605DF898
:100E280004FB00BF04030024E8020024565555556E
:100E3800DC020024F0020024F40200242DE9F04131
:100E4800154815460C4600F09FF9134800F0D0F9F4
:100E5800FFF7C8FEFFF7A2FFDDB105F1FF380F4F1E
:100E680000250F4E4FEA58080E4808340DF0DEFAF8
:100E78000D4887ED000A0DF0D9FA3A68A84586EDC5
:100E8800000A05F1010544F8082C326844F8042CDE
:100E9800EAD1BDE8F08100BF04030024B49800241F
:100EA800B898002494960024C49600240021084889
:100EB80008B500F087FA064800F060F9FFF770FD02
:100EC800034800F05DF90349014800F055F9FEE7D1
:100ED80004030024450E00082C4800222C4938B58C
:100EE80000F5104302604261C3F87C23C3F88423F1
:100EF8000262C0F8D422274A0D88C3F888234FF627
:100F08000F02254CA3F88C2307228988A3F8805365
:100F1800224D83F88E232246A3F8821320490DF030
:100F280037FB224629461F480DF032FB29461E4D45
:100F380022461E480DF02CFB224629461C480DF07F
:100F480027FB224629461B480DF022FB224629464C
:100F580019480DF01DFB2246294618480DF018FBCC
:100F68002246294616480DF013FB22462946154805
:100F78000DF00EFB2246294613480DF009FB2246C8
:100F880029461248BDE838400DF002BB040300248E
:100F980050FB000880707FF000000024A5090008BD
:100FA800A1090008949600249D090008C49600240D
:100FB800649700249C9700247C980024449800247B
:100FC8002C970024D49700240C980024F49600242D
:100FD800DFED167A8C46B4EE670A10B504468646ED
:100FE800F1EE10FA2DED028B80ED080A48BFB0EE45
:100FF800670AC0ED090AB0EE608A80F83420BCE8C0
:101008000F00AEE80F009CE80F008EE80F000DF00F
:10101800A9FCF0EE407AB0EE480AC4ED0A7A0DF069
:10102800A1FC84ED0B0ABDEC028B10BD95BFD63335
:1010380090F8343010B50446032B4BD8DFE803F0A2
:101048003B2A150201F06AFC60EE006AD4ED087ACA
:1010580094ED097A26EE800A37EE677AE0EE077A91
:10106800C4ED0C7AB0EE670A10BD01F057FC94EDA0
:101078000A7AD4ED0B7A77EEC77AA0EE277AB0EE2B
:10108800470A0DF0FDFBF0EE407A84ED0C0AB0EE55
:10109800670A10BD01F042FCD4ED087A94ED097A94
:1010A80020EE000A37EE677AE0EE077AB0EE670ABC
:1010B800C4ED0C7A10BD01F031FCD4ED087A94ED42
:1010C800097A37EE677AE0EE077AB0EE670AC4ED80
:1010D8000C7A10BDD0ED0C7AC4E700BF10B4204CD8
:1010E8000022204B83B0D4F888101F4841F47001C7
:1010F800C4F8881019681D4C41F0010119601A6183
:10110800196808401A4918609A61DA611A629A6285
:10111800DA621A635A639A63DA631A645A6418685B
:1011280020F4802018601A66D3F8DC2042F0604270
:10113800C3F8DC20D3F8DC300193019B2368194005
:10114800B1F1005F03D20B4B0122C3F80821044B15
:101158004FF000629A6003B05DF8044B704700BF1F
:1011680000ED00E0004402587FEDF6EA0010005C54
:101178000000FFFF0080005100F004BA00F006BA3A
:10118800183001F055BE00BF10B504463C3001F0E0
:10119800C5FB04F15C0001F0C1FB04F17C0001F027
:1011A800BDFB04F19C0001F0B9FB04F1BC0001F0A7
:1011B800B5FB04F1DC0001F0B1FB04F1FC0001F027
:1011C800ADFB04F58E7001F0A9FB04F59E7001F0EB
:1011D800A5FB04F5AE7001F0A1FB04F5BE7001F0AB
:1011E8009DFB04F5CE70BDE8104001F097BB00BF31
:1011F80010B5044600F5F67001F004FC04F5FC7027
:1012080001F000FC04F5017001F0FCFB04F504702A
:10121800BDE8104001F0F6BB2DE9F04105460F206E
:10122800002405F1180805F5DC762DED028BC2B017
:101238009FED638A00F090F903460FA8ADF80C30D3
:10124800039901F003FC102000F086F903460DF124
:101258004D00ADF81030049901F0F8FB112000F0B2
:101268007BF903460DF15E00ADF81430059901F0E5
:10127800EDFB122000F070F903460DF16F00ADF898
:101288001830069901F0E2FB132000F065F90346D7
:1012980020A8ADF81C30079901F0D8FB142000F005
:1012A8005BF903460DF19100ADF82030089901F083
:1012B800CDFB152000F050F903460DF1A200ADF862
:1012C8002430099901F0C2FB162000F045F90346C5
:1012D8000DF1B300ADF828300A9901F0B7FB1720DB
:1012E80000F03AF9034631A8ADF82C300B9901F01B
:1012F800ADFB182000F030F903460DF1D500ADF82C
:1013080030300C9901F0A2FB192000F025F90346B2
:101318000DF1E600ADF834300D9901F097FB1C2073
:1013280000F01AF903460DF1F700ADF838300E99C0
:1013380001F08CFB04230C220FA9404601F094FB1A
:1013480005F13C0205F15C03C5E96F2305F17C0258
:1013580005F19C03C5E9712305F1BC0205F1DC0325
:10136800C5E9732305F1FC0205F58E73C5E97523FC
:1013780005F59E7205F5AE73C5E9772305F5BE72CE
:1013880005F5CE73C5E97923E1B2404656F8047FE6
:1013980001F064FD014628460134019100F016F978
:1013A8000023F0EE480A019938461A4601F098FAE7
:1013B8000C2CE9D142B0BDEC028BBDE8F08100BF36
:1013C8006F12033B2DE9F04F054691B0019100F0F3
:1013D800A5F80199284600F065F90A2000F0BCF844
:1013E800034605F5F6799FED4A0AADF8083005F58C
:1013F800FC774846029901F0F1FA092000F0ACF8B0
:1014080003469FED430A3846ADF80C3005F50176E2
:10141800039905F5047401F0E1FA082000F09CF83E
:10142800ADF810009FED3A0A304604990DF11808FE
:1014380001F0D4FA072000F08FF8ADF814009FED02
:10144800340A2046059905F5207B01F0C7FA0721E3
:10145800404605F5104AC5E98797C5E9896404F04F
:1014680049F809AE05F50B734FF0000905F5DC7472
:1014780005F5F477019398E8070086E80700184611
:10148800314601F087FA98E8070086E807003146F8
:10149800584601F07FFA019B184601F091FA584628
:1014A80001F08EFA2846FFF7B7FE1A4B49F284304E
:1014B8003146CAF8803301232844CAF87C930B9339
:1014C8000E9347F61223CDF830900F930223CDF8F0
:1014D80028900D93104B099303F02EFD0A23CAF8A8
:1014E80070933021CAF86C93284685F8D89285F80D
:1014F800DC3200F04FF854F8046F284600F066F824
:10150800304601F02FFAA742F5D111B0BDE8F08FAF
:101518000000000001070106010601070B4901232D
:101528000B4A038280F8273080F82B3010B4C0E9CA
:101538000112084C40F2027140F60662C460A0F83D
:1015480025105DF8044BA0F8292070470508050907
:1015580005070506050A06061F2882B009D8084BA4
:1015680003EB400213F81030507843EA002002B031
:10157800704701230C2043EA002002B0704700BFE7
:10158800A4FB0008143001F08DB900BF143001F03D
:1015980085B900BF38B500F1140504462DED028B5E
:1015A800284601F06DF9284601F078F92846B0EE92
:1015B800408A01F061F9D0ED007AF8EE677A88EE9A
:1015C800277ABDEC028B84ED0E7A38BD90ED0E0AB9
:1015D800704700BFF0B5032399B000270125129387
:1015E80006462C4B09A81595CDE90E7340F2045315
:1015F800ADF84030284BCDE91357099301F030FD81
:1016080009A801F009FE002835D1244B04AF04468F
:101618000090CDF842301023394604958DF82030DB
:101628001F4BCDE91650CDE906506846059301F0E9
:1016380081FF0823009A01A909A8ADF804508DF884
:10164800064009940295039300F0CAF800230EA9F6
:1016580038463024049302F037FD03224FF07E53BE
:1016680009A906F114000B93CDE90942049A01F087
:10167800D1F819B0F0BD40F60132084B169704AF07
:10168800ADF824200998CDF84230179500F068F895
:10169800DCE700BF0402040403030001040604039A
:1016A8000704010B30B504462DED028B83B079B3E6
:1016B800012140F2011200230091ADF804208DF8B9
:1016C800063003F0CDFE054670B30123694604F1E8
:1016D80030008DF8063003F02BFE072D3AD104F1C7
:1016E80014052046FFF776FF284601F0D7F828466C
:1016F800B0EE408A01F0C0F8D0ED007AF8EE677AD3
:1017080088EE277A84ED0E7A03B0BDEC028B30BDEB
:1017180040F2011300918DF80610ADF8043003F083
:101728009FFE05460028D0D1694604F1300003F039
:10173800FFFD211D204602F047F904F1250001F0C4
:101748008FFC04F1290001F08BFC04F1120000F079
:1017580071F9C4E7211D204602F036F9BFE700BF42
:1017680010B584B003460124ADF8040003A8ADF811
:101778000C30ADF80E4001F073FC214603A801F0CF
:1017880059FD204603F008FD002103A801F052FD91
:10179800204603F001FD214603A801F04BFD04B0EB
:1017A80010BD00BF10B5C2F3002384B00C46017C05
:1017B8008DF80D2043EA4402FA2402238DF80C2008
:1017C80003AA009401F04CFF18B10124204604B08C
:1017D80010BD04460A2003F0DFFC204604B010BD0B
:1017E800034670B543F8042B044684B007C983E860
:1017F8000700A37983B91A210B461E22FA25237400
:101808002046ADF80C20022303AA009501F028FF1A
:1018180028B1012004B070BD1B210B46EDE70A205A
:1018280003F0BAFC4FF4B85200950223ADF80C202F
:10183800204603AA217C01F013FF0028E9D10A20E1
:1018480003F0AAFC41F2027200950223ADF80C20C5
:10185800204603AA217C01F003FF0028D9D10A20E1
:1018680003F09AFC042200950223ADF80C202046D0
:1018780003AA217C01F0F4FE0028CAD10A2003F053
:101888008BFC062200950223ADF80C20204603AA03
:10189800217C01F0E5FE0028BBD10A2003F07CFC86
:1018A80041F2082200950223ADF80C20204603AA35
:1018B800217C01F0D5FE0028ABD10A20064603F0B2
:1018C8006BFC0095022303AA217C2046ADF80C602E
:1018D80001F0C6FE00289CD1304603F05DFC00955F
:1018E80022790C232046002A8DF80C3003AA4FF0E9
:1018F800020314BF622142218DF80D10217C01F0F2
:10190800AFFE002885D1304603F046FC2279D4E9A1
:1019180002310B43DBB20AB943F0400362790AB1E2
:1019280043F020030E22FA258DF80D30204600954D
:1019380002238DF80C2003AA217C01F091FE0028D7
:101948007FF467AF0A2003F027FC102200950223DA
:10195800ADF80C20204603AA217C01F081FE002866
:101968007FF457AF0A2003F017FC122100950223D9
:10197800ADF80C1003AA217C204601F071FE002866
:101988007FF447AF0A2003F007FC01220921204613
:10199800FFF708FF003818BF01203BE7F0B5102318
:1019A80087B0234C012200250126002702A92046E2
:1019B8000195CDE902234FF48052CDE9046709F07F
:1019C80095F9642003F0C8FE02A94FF4805220461E
:1019D800CDE9046702261027CDE9026709F086F9E8
:1019E8000322102302A92046CDE902230023042262
:1019F800CDE904234FF4805209F078F940F23223FC
:101A0800042202A9019310232046CDE90223019A5A
:101A1800012305924FF48052049309F067F940F6C8
:101A28000601204609F082F9284607B0F0BD00BF3C
:101A3800C49800241C4B00221C494FF0400C30B5C0
:101A4800054689B00220596007219A601A6201246C
:101A5800DA620A224FF4006EDC6006922022CDE999
:101A6800000104200821CDE9020103201021CDE95D
:101A7800040108206946C3E904024FF4C072181D26
:101A8800C3E906C24FF48052C3E909E209F004F938
:101A980038B92846FFF782FF003818BF012009B07F
:101AA80030BD204609B030BDC098002440410052E6
:101AB800614A0021D0B513688EB00A91002B40F01E
:101AC800B9805E4B01214FF683700C24116002210E
:101AD800D3F8D4200026032742F48052C3F8D42038
:101AE800D3F8D42002F480520092009AD3F8E02070
:101AF80042F01002C3F8E020D3F8E02002F0100210
:101B08000192019AD3F8E02042F04002C3F8E020A5
:101B1800D3F8E02002F040020292029AD3F8E020C3
:101B280042F00802C3F8E020D3F8E02002F00802EF
:101B38000392039AD3F8E02042F48072C3F8E020BD
:101B4800D3F8E02002F480720492049AD3F8E020DB
:101B580042F08002C3F8E020D3F8E02002F08002CF
:101B68000592059AD3F8E02042F02002C3F8E0205D
:101B7800D3F8E02002F020020692069AD3F8E0207B
:101B880042F00402C3F8E020D3F8E0300C9403F0EC
:101B9800040307930323079A0B93CDE9080108A9C7
:101BA800274805F05FFC48F23712022308A92548A8
:101BB8000C94CDE90823CDE90A6705F053FC4CF2F3
:101BC8000372022308A920480C94CDE90823CDE923
:101BD8000A6705F047FC40F2FF62022308A91B4888
:101BE8000C94CDE90823CDE90A6705F03BFC4FF6D4
:101BF8000C72022308A916480C94CDE90823CDE9F4
:101C08000A6705F02FFC4FF63F02022308A9114886
:101C18000C94CDE90823CDE90A6705F023FC2022BE
:101C2800022308A90A480C94CDE90A67CDE90823DC
:101C380005F018FC0EB0D0BDBC9800240044025832
:101C48000010025800180258000C025800200258D0
:101C5800001C0258001402582DE9F04FDFF81084D8
:101C680006460D46144608F114002DED028B89B086
:101C780000AF02F021FBD8F8143073B3D8F818304D
:101C8800D8F80490002B43690BBF4FF0080A4FF0B7
:101C9800100A4FF0020B4FF0040BB9F1000F2AD0D5
:101CA800A200EA46012B02F1070222F00702ADEB7F
:101CB800020D6846ADEB020D694600F03F81022B2C
:101CC80000F0D680002B6FD02246C847D54624376F
:101CD800BD46BDEC028BBDE8F08FD8F81830002B5C
:101CE800F5D0D8F804904FF0080A4FF0020B43697A
:101CF800B9F1000FD4D1FB61D8F80030BB61002BDB
:101D0800E5D0D54802F04AFB6B46BBF1020F78617B
:101D180008EE103AFB6900F083816A465146A2EB4F
:101D2800C40295466200EA46B2FBFBF2AAEBC40085
:101D380085460AEB8200EE46F861ADEB010DF869C5
:101D48000EEB820CC7F810C0EC46ADEB010D00EBB2
:101D58008201CCF80400CCF8081001EB8201386944
:101D6800E946CCF80C1000EB8201CCF800A001EB9E
:101D78008202C9E900E0C9E90212012B00F064837C
:101D8800022B00F06C82002B00F08081620849462B
:101D98006046BB69984718EE103A24379D46BD4601
:101DA800BDEC028BBDE8F08F002C8DD01A46D8ED23
:101DB8000B6A9FEDB27A8446331D36F922E00CF1A6
:101DC800080C07EE90EA33F922E00232F8EEE77ADF
:101DD800944267EE877A67EEA67A4CED027A07EEB0
:101DE80090EAF8EEE77A67EE877A67EEA67A4CED26
:101DF800017AE2D8F9612246C847984ED8ED046ABC
:101E08000020F9692B1D9FED9E7A9FED9E6ADFEDFC
:101E18009E5A22E0F4EEC67AF1EE10FAC0F2C884B7
:101E280047F6FE72D1ED017A45F8202066EEA77AD2
:101E3800F4EEC77AF1EE10FA40F2F080F4EEC67ACA
:101E4800F1EE10FAC0F2D58447F6FE7243F820206E
:101E58000230083184427FF639AFD1ED007A66EE60
:101E6800A77AF4EEC77AF1EE10FAD3D83246D9E75A
:101E7800002C3FF429AFD8ED0B6A84469FED787AA1
:101E88000022331D8E4656F822100CF1080C07EE7E
:101E9800901A53F822100232F8EEE77A944267EE6D
:101EA800877A67EEA67A4CED027A07EE901AF8EE7A
:101EB800E77A67EE877A67EEA67A4CED017AE2D880
:101EC80071462246C7F81CE0C847664ED8ED046A3A
:101ED8000020F9692B1D9FED6A7A9FED6A6ADFF889
:101EE80094C120E0F4EEC67AF1EE10FAC0F27984DB
:101EF8003246D1ED017A45F8202066EEA77AF4EE55
:101F0800C77AF1EE10FA40F28780F4EEC67AF1EE65
:101F180010FAC0F25E84324643F8202002300831BD
:101F280084427FF6D3AED1ED007A66EEA77AF4EE5E
:101F3800C77AF1EE10FAD5D86246DAE7002C3FF4FA
:101F4800C3AED8ED0B6A86469FED477A4FF0000C7A
:101F5800331D56F82C200EF1080E82F40002A2F56B
:101F6800000207EE902A53F82C200CF1020CF8EE30
:101F7800E77A82F400026445A2F5000267EE877AE8
:101F880067EEA67A4EED027A07EE902AF8EEE77A27
:101F980067EE877A67EEA67A4EED017AD9D8F961AD
:101FA8002246C847314ED8ED046A0020F9692B1D36
:101FB8009FED337A9FED336ADFF8BCC01FE0F4EE83
:101FC800C67AF1EE10FAC0F2FC833246D1ED017AFE
:101FD80045F8202066EEA77AF4EEC77AF1EE10FAFB
:101FE80018D9F4EEC67AF1EE10FAC0F2DA83324666
:101FF80043F820200230083184427FF667AED1EDE5
:10200800007A66EEA77AF4EEC77AF1EE10FAD6D81F
:102018006246DBE76246EBE762467DE7324615E754
:10202800A100D6466208073121F00701ADEB010D8A
:10203800EA46ADEB010D6946ADEB0E0D0AEB8200E9
:10204800EC46ADEB0E0D01EB8202F861E946CCE9F6
:1020580000A0C9E9001290E6109900240280FFFF51
:10206800000000300082FF7F0000003482FF7F0004
:10207800F8980024007E00807E0080FF0000003871
:1020880004FF7FBF04FF7F3F00FEFF46002C00F0E7
:10209800C982BBF1020FD8F8202000F0FA827969D2
:1020A800C7F8049002EB810E5FED0C5A8A00DCF849
:1020B80008100EF104007A611A46DCF80C303B6116
:1020C800331DD7F810903D61FD69C7E902CB8C46F6
:1020D800834636F92210D8ED0B7A06EE101A33F93A
:1020E800221006EE901A3EF92210B8EEC66A07EEE4
:1020F800101AF8EEE66A3BF92210B8EEC77A26EE17
:10210800256A66EEA56A27EE257A26EE276A66EE28
:10211800A76A27EE277A07EE901A51080232F8EEDE
:10212800E77A0AEB8100944280ED006A05EB8100B2
:1021380067EEA57AC0ED006A0CEB810009EB81011E
:1021480080ED007A98ED0B7A67EE877AC1ED007A18
:10215800BFD8D7F804903D69D7E902CB604662083A
:10216800BB6949469847D8F828307A69D8ED046A97
:102178001A441FED3D7A1FED3D6A2B1D904602F172
:10218800040A5FED3F5A0022A84ED9E900EC51E05D
:10219800F4EEC67AF1EE10FAC0F2C78247F6FE7086
:1021A80045F822000CEB0100D0ED007A66EEA77A24
:1021B800F4EEC77AF1EE10FA4BD9F4EEC67AF1EEE6
:1021C80010FAC0F2BA8247F6FE70BBF1020F43F86C
:1021D80022002BD0D9F808000844D0ED007A66EE2A
:1021E800A77AF4EEC77AF1EE10FA36D9F4EEC67A89
:1021F800F1EE10FAC0F2CD8247F6FE7048F82200E0
:10220800D9F80C000144D1ED007A66EEA77AF4EE15
:10221800C77AF1EE10FA1ED9F4EEC67AF1EE10FA8A
:10222800C0F2AF8247F6FE714AF822100232944299
:102238007FF6B1AD51080EEB81008900D0ED007A30
:1022480066EEA77AF4EEC77AF1EE10FAA0D8304617
:10225800A6E73046B9E73146E6E73046CEE7002C38
:1022680000F0E081BBF1020FD8F8203000F0E181E6
:102278007A69DCF8081003EB820EC7F80490930023
:10228800DFED6B5A0EF1040000227B61DCF80C30A4
:102298003B61331DD7F810903D61FD69C7E902CB5A
:1022A8008C46834656F82210D8ED0B7A07EE101AA2
:1022B80053F82210B8EEC76A07EE101A5EF822101B
:1022C800F8EEC76A07EE101A26EE256A5BF82210A8
:1022D800B8EEC77A66EEA56A26EE276A27EE257A53
:1022E80066EEA76A27EE277A07EE901A510802329F
:1022F800F8EEE77A0AEB8100944280ED006A05EB7C
:10230800810067EEA57AC0ED006A0CEB810009EB4D
:10231800810180ED007A98ED0B7A67EE877AC1ED3E
:10232800007ABFD8D7F804903D69D7E902CB604658
:102338006208BB6949469847D8F828307A69D8EDC9
:10234800046A1A449FED3E7A9FED3E6A131D924639
:10235800DFF8E4C00022FB612B1D364ED9E9008E60
:102368004EE0F4EEC67AF1EE10FAC0F2FC81304687
:1023780045F822000EEB0100D0ED007A66EEA77A50
:10238800F4EEC77AF1EE10FA49D9F4EEC67AF1EE16
:1023980010FAC0F2EF813046BBF1020F43F8220079
:1023A8002AD0D9F808000844D0ED007A66EEA77A5A
:1023B800F4EEC77AF1EE10FA35D9F4EEC67AF1EEFA
:1023C80010FAC0F2C98130464AF82200D9F80C0048
:1023D8000144D1ED007A66EEA77AF4EEC77AF1EE01
:1023E80010FA1ED9F4EEC67AF1EE10FAC0F2AD81F9
:1023F8003146F86940F82210023294427FF6CBAC9D
:10240800510808EB81008900D0ED007A66EEA77AC2
:10241800F4EEC77AF1EE10FAA3D86046A8E7604652
:10242800BAE76146E5E76046CEE700BF0280FFFFF6
:10243800000000300082FF7F007E00800000003432
:1024480004FF7FBF04FF7F3F002C00F0EB807A6918
:102458000021D8F82030C7F8109003EB820ED7F887
:102468001C909300FD610EF104021FED0C6A7B6164
:10247800331D154656F821204808D8ED0B6ABBF1E4
:10248800020F82F40002A2F5000207EE902A53F828
:10249800212082F40002B8EEE77AA2F5000227EEC6
:1024A800067A07EE902A0AEB8002F8EEE77A27EE22
:1024B800267A67EE867A82ED007A09EB80024FEA87
:1024C800800067EEA67AC2ED007A27D05EF8212058
:1024D80082F40002A2F5000207EE902A55F82120A6
:1024E80082F40002B8EEE77AA2F5000227EE067A37
:1024F80007EE902ADCF80820F8EEE77A024427EE87
:10250800267A67EE867A82ED007A98ED0B7ADCF807
:102518000C2067EE877A0244C2ED007A02318C42C1
:10252800A8D8D7F8109060466208BB694946FD698B
:102538009847D8F828307A69D8ED046A1A441FED0C
:10254800407A1FED406A131D9246DFF8C4C200228C
:10255800FB612B1DAB4ED9E9008E4EE0F4EEC67A36
:10256800F1EE10FAC0F2C580304645F822000EEBB5
:102578000100D0ED007A66EEA77AF4EEC77AF1EEA4
:1025880010FA49D9F4EEC67AF1EE10FAC0F2BF801B
:102598003046BBF1020F43F822002AD0D9F80800D0
:1025A8000844D0ED007A66EEA77AF4EEC77AF1EE29
:1025B80010FA35D9F4EEC67AF1EE10FAC0F2AE8010
:1025C80030464AF82200D9F80C000144D1ED007ACF
:1025D80066EEA77AF4EEC77AF1EE10FA1ED9F4EE99
:1025E800C67AF1EE10FAC0F28B803146F86940F8ED
:1025F8002210023294427FF6CEAB510808EB8100DC
:102608008900D0ED007A66EEA77AF4EEC77AF1EE8B
:1026180010FAA3D86046A8E76046BAE76146E5E73E
:102628006046CEE7224649466046BB699847FFF7B1
:10263800B2BBC7F810B0002298ED0B6A331DDFED6E
:10264800726AD7F81CB0786956F8221007EE901A0B
:1026580053F82210B8EEE77A07EE901A51080232C2
:10266800F8EEE77A27EE267A0AEB810E94420BEB16
:10267800810167EEA67A27EE067A67EE867A8EEDF6
:10268800007AC1ED007ADFD88300D7F810B07B61FB
:102698004DE61A46C7F810B098ED0B6A331DDFED0A
:1026A8005B6AD7F81CB0786936F9221007EE101A61
:1026B80033F9221007EE901AB8EEC77A51080232A1
:1026C800F8EEE77A27EE267A0AEB810E94420BEBB6
:1026D800810167EEA67A27EE067A67EE867A8EED96
:1026E800007AC1ED007ADFD88300D7F810B07B619B
:1026F80034E5F0EE675AFEEEE45A15EE900A34E738
:10270800F0EE675AFEEEE45A15EE901A6EE7F0EE18
:10271800675AFEEEE45A15EE900A3AE7F0EE675A69
:10272800FEEEE45A15EE900A4BE767EEA57AFDEE49
:10273800E77A17EE900A00B232E567EEA57AFDEE69
:10274800E77A17EE900A00B23FE5F0EE675AFEEE20
:10275800E05A15EE901A4CE6F0EE675AFEEEE05A93
:1027680015EE900A30E6F0EE675AFEEEE05A15EEE6
:10277800900AFDE5F0EE675AFEEEE05A15EE900A73
:102788000AE667EEA57AFDEEE77A17EE901A09B227
:102798004AE567EEA57AFDEEE77A17EE900A00B2F1
:1027A8002CE5F0EE675AFEEEE45A15EE902A1FE487
:1027B80067EEA57AFDEEE77A17EE902A12B2FFF7D8
:1027C80031BBF0EE675AFEEEE45A15EE902AFFF799
:1027D800FDBBF0EE675AFEEEE05A15EE902AFFF7C1
:1027E8009BBBF0EE675AFEEEE05A15EE902AFFF713
:1027F80080BB67EEA57AFDEEE77A17EE902A12B253
:10280800FFF724BB82FF7F00000000300000003883
:102818007E0080FF30B5154C154685B0046004F184
:10282800080C01AB07C98CE80700D4ED047AF5EE73
:10283800C07A83E80700F1EE10FA14DDF7EE006ABB
:1028480086EEA77A84ED0B7A6DB1204640F8145FC6
:1028580001F032FD064903690020064AE16162621F
:10286800E36005B030BD012005B030BDF898002404
:10287800002000300000003000680830704700BFBA
:10288800B1F5807F03680A4628BF4FF48072B1F51E
:10289800807F9A6094BF0020012070470068143040
:1028A80001F06ABD30B5046883B008480D46A368D6
:1028B800626AE1699B00009004F1140001F0FEFCDB
:1028C8000020C4E9000503B030BD00BF611C00084A
:1028D800024B0022C3E90522704700BFF898002484
:1028E800F6EE006A4FF0000C60EE207A0160B7EE59
:1028F800007A0021C0F80CC067EEA67A80ED020AC3
:1029080080ED047AC0F814C0C7EE276A02764376D1
:102918008176C0ED070AC0ED016A70470268037E40
:10292800128807EE902AFBEEC87A1BB1B7EE007A40
:1029380077EE677AD0ED056A90ED047A77EEE67A5D
:10294800437E67EE877A0BB1F1EE677A90ED030A62
:1029580090ED017A77EEC07AA7EE270A80ED030A98
:10296800704700BF837E80ED020A73B9D0ED077A05
:1029780027EE800AF6EE007AB7EE007A20EE270AF4
:10298800C7EE007AC0ED017A7047DFED017AEFE714
:102998006F12033B38B50C46054691ED000A09F065
:1029A80067FF94ED010A05F11C0009F061FF94ED41
:1029B800020A05F13800BDE8384009F059BF00BFE8
:1029C80010B5044609F066FF04F11C0009F062FF27
:1029D80004F13800BDE8104009F05CBF012282B064
:1029E8000346C1F3072CADF80410417000210270B2
:1029F800104483F802C09A80D9709A7102B000F02E
:102A08002FBB00BF38B5447905468379013064008F
:102A180064B253B100F000FCB0FA80F35B092343C1
:102A2800DBB27F2B6B7108D038BD00F0F5FB43B2E9
:102A38002343DBB27F2B6B71F6D102F0ABFB07EEC1
:102A4800900AF8EE677AC5ED027A38BD82B04FF089
:102A5800000C0323ADF80410BDF8042080F810C062
:102A68000280438002B070472DE9F04FBE4E00252A
:102A78008FB0BE4C037006F14003426007460192D6
:102A88008846202229463046C4F85831C4F8546193
:102A9800CDE90355CDE90555CDE90755CDE90955EA
:102AA800CDE90B550DF048F82022294604F5997018
:102AB800C4F82151C4F82551C4F82951C4F82D513E
:102AC8000DF03AF8019B84F8385284F820317A687E
:102AD800002A5FD02B464146B64604F590759946C4
:102AE8004FF0010A03EB0310D1F800B0D1F80480CD
:102AF8000133D1F808C02218CE6844F800B0C2F8F3
:102B08000480C2F808C0D660087C2EF8029B1074B6
:102B18000A7C05F8012F002A69D07A68113184F8F7
:102B280038A29A42DED84FF4802291489DF80430AA
:102B380008214FF000084FF00009C4F87431002351
:102B4800C4E957020122C4F8643184F87031C4E939
:102B58005A2194F83812C4E9608981B3C4F88821ED
:102B6800002284F8713184F878313B78C4E9632213
:102B7800A3B3012200200121013B84F89421C4E978
:102B88006801082B2CD8DFE803F0ABB0B5BABFC496
:102B9800C9CFD6009DF804300121C4F86421C4F8D7
:102BA80074314FF4802384F87021714AC4E95723A3
:102BB80008230022C4E95A130023C4E9602301232F
:102BC800002284F87131002384F878310323C4F893
:102BD80088313B78C4E96322002BCAD184F8943148
:102BE800644803F0F1F9034638B1FFBEFEE77A689E
:102BF80011319A423FF676AF95E703A95D480393F2
:102C080003F040FB0546002868D1022240F2FF731A
:102C1800CDE9082300230422CDE90A2394F82031C2
:102C2800002B00F0D5804FF0060921E0022B00F0C0
:102C38008980012B40F0C4809AF80130012B00F004
:102C4800C180002B4C4B18BF002306A94948CDE989
:102C5800063902F0E5FD002840F0BF80013594F800
:102C68002031EDB2AB4240F2B380444B53F825908B
:102C78002FB207EB071704EB070A504600F0F0F9EC
:102C880005EB051323441B7C042B7DDC022B00F38E
:102C9800918000F08D806319002283F81021E35D94
:102CA800002BC3D19AF80130062B00F08580072B42
:102CB80000F08A80022B00F09680032B00F09580AC
:102CC800002B00F09680012B00F09180042B00F07F
:102CD8009280052B2A4B18BF0023B6E7FFBEFEE7FC
:102CE80003224023C4E966237AE707226023C4E964
:102CF800662375E70F228023C4E9662370E71F2245
:102D0800A023C4E966236BE73F22C023C4E96623F6
:102D180066E77F22E023C4E9662361E7FF224FF4D8
:102D28008073C4E966235BE740F2FF124FF49073A7
:102D3800C4E9662354E740F2FF324FF4A073C4E9B4
:102D480066234DE79AF80130042B37D0052B3DD088
:102D5800002B40D0012B42D0022B42D0032B094B31
:102D680018BF002371E700BF0040003028990024F5
:102D780000200240849A00240002B025E4FB0008E9
:102D88000000B84F0020903603233E1D04EB0508D1
:102D98004FF0000B264488F8103130460BF1010B38
:102DA80000F05EF998F8103104365B45F5DC76E7FB
:102DB8000123EAE70223E8E7104B46E7104B44E714
:102DC800002342E70F4B40E70F4B3EE70F4B3CE732
:102DD8000FB0BDE8F08F0E4B37E7FFBEFEE70D4B97
:102DE80033E70D4B31E70D4B2FE70D4B2DE70D4B1F
:102DF8002BE70D4B29E70D4B27E700BF0800900C88
:102E08001000C0102000F0148000501D0001802127
:102E18000004002A0008302E001060320040C03A3A
:102E28000080F03E00005247000021430000844B20
:102E380038B5094C40F2FF724FF0011104F5AE7538
:102E4800284603F0CDF994F82021D4F854112846E7
:102E5800BDE8384002F038BF28990024034B0F29F9
:102E6800D3F8540198BF00EB41007047289900241B
:102E7800214B02689A4200D07047204A002320481C
:102E8800D2F8D81030B51F4C41F0200183B0C4F8F7
:102E9800C001092004F5E075C4E971034FF48060AE
:102EA800C2F8D810D2F8D8204FF40061C4E97330C2
:102EB80094F8380202F02002C4F8D4114FF40051FB
:102EC800984201922846C4F8D811C4E97833019B86
:102ED80014BF00234FF48073C4F8DC3103F0F8FB0F
:102EE80008B1FFBEFEE704F5AE73C4F8A851C4F8F4
:102EF800F83103B030BD00BF002002400044025842
:102F08004000024028990024014803F059BF00BF3F
:102F1800E89A002402682DE9F84F4B4B9A4201D0F9
:102F2800BDE8F88F494D95F83832002BF8D095F860
:102F38002031002B77D0002405F10C0905F599768E
:102F480005F59077A04613E003F0010117F811BCCE
:102F5800A9F1080000F06EF9BBF1010F25D895F82A
:102F68002031013409F111090236A2B293422BD95A
:102F780017F8012F002AF4D0D5F8543100213278FF
:102F880033F81400D5F8583103EB041323F8120072
:102F9800338801339BB233805FFA83FA3A789A42D6
:102FA800D2D88A46A6F80080D0E7CAF34001A9F132
:102FB800040000F03FF9BBF1020FCAF38001CED044
:102FC800484600F037F9CAE7002395F83802204947
:102FD80009229842C5F8C8314FF48060C5F8C0117D
:102FE800C5F8C4214FF400614FF40052C5F8CC3144
:102FF80008BF4FF48073C5F8D821C5E974010022D1
:103008001448C5E97732C5F8E42103F061FB08B13B
:10301800FFBEFEE795F82021D5F854110E48BDE80B
:10302800F84F02F051BE0A4909224FF48060C5F8F2
:10303800C831C5E970124FF400614FF40052C5E978
:103048007330C5E97512DAE7002002402899002498
:1030580040000240E89A0024849A0024704700BF88
:1030680030B583788FB00446022B37D0032B33D08A
:10307800012B31D000230A93E378012B2AD0022BAD
:1030880028D000230B93002320460C9302F042FA29
:103098000546204602F046FA23780990082B13D8F3
:1030A800DFE803F01F3245586B7E91A40500594BA9
:1030B800D3F8E02042F48072C3F8E020D3F8E0307F
:1030C80003F480730893089B09A9284604F0CAF9F9
:1030D8000FB030BD0B93D6E70A93CDE711230A93BF
:1030E800CAE74C4B09A92846D3F8E02042F0010270
:1030F800C3F8E020D3F8E03003F001030093009B0D
:1031080004F0B0F90FB030BD424B09A92846D3F8F6
:10311800E02042F00202C3F8E020D3F8E03003F0E8
:1031280002030193019B04F09DF90FB030BD394BA8
:1031380009A92846D3F8E02042F00402C3F8E020A9
:10314800D3F8E03003F004030293029B04F08AF9F9
:103158000FB030BD2F4B09A92846D3F8E02042F024
:103168000802C3F8E020D3F8E03003F00803039323
:10317800039B04F077F90FB030BD264B09A9284608
:10318800D3F8E02042F01002C3F8E020D3F8E03092
:1031980003F010030493049B04F064F90FB030BDEE
:1031A8001C4B09A92846D3F8E02042F02002C3F8B6
:1031B800E020D3F8E03003F020030593059B04F0EA
:1031C80051F90FB030BD134B09A92846D3F8E020B8
:1031D80042F04002C3F8E020D3F8E03003F04003A7
:1031E8000693069B04F03EF90FB030BD094B09A9C0
:1031F8002846D3F8E02042F08002C3F8E020D3F854
:10320800E03003F080030793079B04F02BF90FB01D
:1032180030BD00BF0044025838B5054602F07AF9BF
:103228000446284602F07EF901462046BDE83840AB
:1032380004F020BB70B506460D4602F06BF9044653
:10324800304602F06FF92A1E0146204618BF0122B7
:10325800BDE8704004F014BB0023122270B586B09C
:10326800CDE9022304930368032B01D804230593B3
:10327800061D841D304602F04DF90546304602F021
:1032880051F9034601A92846019304F0EBF82046BA
:1032980002F040F9034620461C4602F043F901A912
:1032A80003462046019304F0DDF806B070BD00BF68
:1032B800634A0368934210B58CB028D0614A9342A0
:1032C80058D0614A934200F09480604A934201D0FA
:1032D8000CB010BD5E4C5F48D4F8E03043F00203F8
:1032E800C4F8E030D4F8E03003F002030A930A9BF4
:1032F800FFF7B2FFD4F8F43043F08003C4F8F43099
:10330800D4F8F43003F080030B930B9BE0E7504CA8
:103318005148D4F8E03043F00203C4F8E030D4F860
:10332800E03003F002030193019BFFF795FFD4F807
:10333800E83000221F2043F400131146C4F8E83097
:10334800D4F8E83003F400130293029BD4F8D83081
:1033580043F00103C4F8D830D4F8D83003F001039F
:103368000393039B03F002F81F200CB0BDE8104044
:1033780003F03AB8364C3948D4F8E03043F08003CB
:10338800C4F8E030D4F8E03003F080030493049BE1
:10339800D4F8E03043F00203C4F8E030D4F8E03069
:1033A80003F002030593059BFFF756FFD4F8E830B6
:1033B8000022212043F480031146C4F8E830D4F8F1
:1033C800E83003F480030693069BD4F8D83043F022
:1033D8000103C4F8D830D4F8D83003F001030793B8
:1033E800079B02F0C3FF21200CB0BDE8104002F09B
:1033F800FBBF1B48FFF730FF154B00224820D3F8CE
:10340800E840114644F40004C3F8E840D3F8E84023
:1034180004F400040894089CD3F8D84044F001044C
:10342800C3F8D840D3F8D83003F001030993099BB7
:1034380002F09CFF48200CB0BDE8104002F0D4BF59
:103448000054004000580040005C0040001C005838
:1034580000440258F09D0024689B0024409C0024EE
:10346800189D00242DE9F0431A4B87B000254FF032
:1034780010099E46EC46184BFF22E04667461A7034
:103488000EF118060EF13004CDE90055CDE90255CC
:10349800ADF80090BCE80F00CDE90455AEE80F0088
:1034A8009CE803000095ADF800908EE80300B8E8AA
:1034B8000F000FC69CE803000095ADF8009086E861
:1034C80003000FCF0FC49CE8030084E8030007B093
:1034D800BDE8F0830C000024649B002410B5EFF3D2
:1034E800108472B6084B1A78120602D504B962B66F
:1034F80010BD1B78D82205485BB202FB03001430CC
:1035080003F05EFCF2E700BF649B0024689B002484
:10351800014804F079BC00BFF49B0024014804F082
:1035280073BC00BFCC9C0024014804F06DBC00BFF4
:10353800A49D00242DE9F0430F68D8243F4D85B0A1
:1035480007FB04F4032F05EB0403036040DCCB689E
:103558000E46012B3CD84DD04FF0D808B646DFF8C0
:10356800FC9008FB0758BEE80F00C446ACE80F0003
:10357800DEF800300DF1100ECCF80030D8F808C095
:1035880099E80F000EE90F000EEB8703BCF1010F5D
:1035980053F8103CC8F88C3031D0BCF1020F42D03F
:1035A800BCF1000F35D0317C8C34D82300220120A7
:1035B8002C4403FB07534900C3E92602C3F89410BF
:1035C8002046C3E92822C3E92A2204F00FFA18B1D9
:1035D800012005B0BDE8F0830146204604F020FC38
:1035E8000028F5D10146204604F044FC003818BFF5
:1035F8000120EEE70B7C103B672BADD9E8E701F023
:103608002DFF0F4B98420CBF0E4B0F4BC8F8903054
:10361800C9E701F023FF0A4B98420CBF0B4B0C4B38
:10362800C8F89030BFE701F019FF054B98420CBF6E
:10363800084B094BC8F89030B5E700BF689B0024D9
:10364800000E27072D0FB0303211D0205F43906055
:103658008A62E030200BA0101A09801058FB00087D
:103668002DE9F041D0F8008082B00D4617461E467D
:1036780008F18C04204604F0CFFB2028FAD1D8F8B2
:103688000C3073B96D002046089C33463A46A9B2FF
:10369800009404F001FA003818BF012002B0BDE818
:1036A800F081089B32463946204604F0C9FAF2E711
:1036B800044B10221A7483F8E82083F8C02183F899
:1036C80098227047689B002430B5002395B04FF4CA
:1036D8008071062204460B9306921393CDE90C13CE
:1036E800CDE90E33CDE9113301F0BAFE07282BD00E
:1036F80004F1100541F2883206A9284604F058FD65
:1037080028B10123184684F85C3015B030BD022278
:10371800022306A92846CDE9002310220123CDE97A
:10372800022300224FF48003CDE9042305224FF041
:10373800807306926A460F9341F2883304F0A4FE20
:103748000028DED115B030BD0323012084F85C3099
:1037580015B030BD0000000070B50023A4B04FF0D4
:1037680080724FF480750446ADF806300D93CDE9AC
:1037780010320122CDE90E53CDE91223CDE91433DD
:10378800002943D0F02300F1100508AEADF806304B
:10379800C02341F2883231462846089304F008FDD8
:1037A80028B10123184684F85C3024B070BD41F27A
:1037B80088320DF10601284604F064FD034600280E
:1037C800EFD105224FF480711E93284616924FF0D0
:1037D80080721B9321931F9202AA9FED1F7BCDE954
:1037E8001C13CDE922338DED027B9FED1D7B41F249
:1037F800883316A98DED047B9FED1B7B8DED067B31
:1038080004F042FE0028CCD124B070BD00F11005B0
:1038180008AE612341F2883231462846089304F005
:10382800C7FC0028BDD141F288320DF106012846B7
:1038380004F0A6FD0028B4D1BDF80630204623F0D8
:10384800780343F04003ADF80630FFF73DFF00284A
:103858009ED0A6E7AFF30080000000000100000042
:1038680010000000010000000000000000004000FF
:103878002DE9F04F00234FF4807501264FF0807832
:1038880004462DED028BABB08DF8073013932193CE
:10389800299314950E96CDF85C80CDE91533CDE9C2
:1038A8001863CDE91A33CDE92253CDE92433CDE9A4
:1038B800273306231C9301F0D3FD072808D004F111
:1038C800100741F288321CA9384604F071FC40B157
:1038D8000123184684F85C302BB0BDEC028BBDE8A0
:1038E800F08F4FF0020A4FF0020B4FF0050941F23A
:1038F800883308AA1CA93846CDF89480CDF8709072
:103908009FED2D8BCDE908AB4FF0000A4FF4800BEB
:103918008DED0A8BCDE90CAB04F0B6FD0028D7D1AC
:1039280041F2883238460EA904F042FC0028CFD173
:10393800402341F288320DF1070138468DF80730EF
:1039480004F0A0FC0028C3D141F288330EA902AAD2
:103958003846CDF83890CDF85C809FED197B8DED19
:10396800048BCDE906AB8DED027B04F08DFD03469B
:103978000028ADD1CDF870904FF00109CDF89480B2
:103988004FF00008219308AA29931CA938462295CC
:10399800CDE92333CDE9273341F288338DED0A8B06
:1039A800CDE90CABCDE9088904F06EFD002893D071
:1039B800304684F85C608FE71000000001000000CA
:1039C80040000000400000002DE9F043624CA3B025
:1039D8000D46046001F044FD072800F0A98028681E
:1039E80023466968AA6807C31E46AB8926F8043BC4
:1039F8003046257B677B04F0BDFBE0B9574B012DB2
:103A08004FF00108E061236114BF4FF480134FF4B5
:103A18000003C4E9058893FAA3F3B3FA83F34FF4D8
:103A28008079013BC4F82490C4E90B003046236236
:103A380004F034FB38B10122134684F85C201846A0
:103A480023B0BDE8F08366230B90139041F28832CF
:103A580006A90693CDE90C90CDE90E00CDE9110039
:103A6800304604F0A5FB0028E5D1992341F28832BD
:103A780006A93046069304F09BFB0028DBD10523FA
:103A88001C9019906A4614934FF08073219014A9E2
:103A98001D9341F288339FED2A7BCDE91A90CDE939
:103AA8001F008DED007B9FED287B30468DED027B5E
:103AB8009FED277B8DED047B04F0E6FC0028BAD14E
:103AC80029462046FFF748FE0028B4D12046FFF7D4
:103AD800CFFE03460028AED1002FB0D11893304650
:103AE8000027002606AA14A9CDF86890CDE91F334F
:103AF800EB2314934FF440631B934FF40053179335
:103B08004FF440431C93A0231693062319934FF0B8
:103B1800805321934FF04073CDE906671D9304F05D
:103B28002BFD034600288AD0434684F85C8086E74C
:103B380001230322184684F85C2023B0BDE8F083F3
:103B4800000000000100000010000000010000005B
:103B58000000000000004000C89E002400500052F1
:103B68002DE9F04F8FB0414B0024026800AF9A4214
:103B78007C63C7E90944C7E90B4403D03C37BD4619
:103B8800BDE8F08F3A4B40F609213A48EB46D3F8A6
:103B9800D42007F11C0607F1220A4FF0020942F46B
:103BA80080424FF00308C3F8D420D3F8D42002F49D
:103BB8008042BA60BA68D3F8E02042F04002C3F805
:103BC800E020D3F8E02002F04002FA60FA68D3F867
:103BD800E02042F02002C3F8E020D3F8E02002F011
:103BE80020023A613A69D3F8E02042F01002C3F8A3
:103BF800E020D3F8E02002F010027A617A69D3F865
:103C0800E02042F00202C3F8E020D3F8E030F86187
:103C180003F002033984BB61174B7B60BB697B6887
:103C280053F8040F7B6001F075FC7B680546186843
:103C380001F078FC16F8013B786207F12401284668
:103C4800C7F830807B63C7E90A9403F00BFC56453C
:103C5800E5D100225C20114602F088FB5C2002F0CE
:103C6800C3FB3C37DD46BD46BDE8F08F005000522F
:103C7800004402580A0A0909249F0024114B0268CB
:103C88009A4200D07047104A70B5D2F8D4300F4C21
:103C980023F4804304F11806C2F8D43054F8040F12
:103CA80001F038FC0546206801F03CFC0146284636
:103CB80003F018FDB442F1D15C20BDE8704002F079
:103CC800A1BB00BF0050005200440258249F0024AA
:103CD800014804F0DDBC00BFD89E0024084B1A1D23
:103CE800981D03F1080110B49C1C9A6603F10A029E
:103CF800C3E91834C3E91B015DF8044B5A677047E0
:103D0800C89E002438B5036871B9026A00F1280515
:103D180000F5AC74012A0CBF002140218BBB1D4B60
:103D28005722C0F858310DE0426A00F1C00500F58D
:103D3800E874012A0CBF00214021EBB1164B5A222E
:103D4800C0F8D03100232046C4E901214FF4805245
:103D58004FF48061636262614FF48042C4E90331C9
:103D68004FF48073C4E906234FF40033236202F052
:103D7800AFFC58B1FFBEFEE7084B5822C0F8D0315F
:103D8800E0E7074B5922C0F85831DBE7C5E9204482
:103D9800A56338BD100002407000024028000240B0
:103DA800580002402DE9F043821D05468BB0031DE3
:103DB80005F10A010830CDE9052305F10C02AB69CC
:103DC800CDE907010992002B3DD0EB69B3FA83F8DE
:103DD8004FEA58180123022205AE0AAF4FF0060930
:103DE8000393CDE9012356F8044B2B7922789342AB
:103DF80016D02B68F3B1012B02D1F2B10A23049338
:103E0800204601F08FFB03462046009301F082FB19
:103E1800694603F027FBBE42E5D10BB0BDE8F0834D
:103E2800697963789942E4D1B8F1000FF3D02B682F
:103E3800002BE0D1CDF81090E2E76378022B14BF95
:103E48000A230823DBE74FF00108C3E7534A036856
:103E5800934230B505468BB055D02032934252D0AC
:103E68004F4A934204D02032934201D00BB030BD68
:103E78004C4C4D48D4F8E03043F00103C4F8E0302E
:103E8800D4F8E03003F001030593059BD4F8E03043
:103E980043F00803C4F8E030D4F8E03003F0080336
:103EA8000693069BD4F8E03043F04003C4F8E030B2
:103EB800D4F8E03003F040030793079BD4F8F030C0
:103EC80043F40003C4F8F030D4F8F03003F40003EE
:103ED8000893089BFFF766FFD4F8D830296843F0A9
:103EE80001032F4A3048C4F8D830891AD4F8D8309A
:103EF80018BF012103F001030993099B0BB0BDE82A
:103F08003040FFF7FFBE274C2848D4F8E03043F094
:103F18000103C4F8E030D4F8E03003F00103009363
:103F2800009BD4F8E03043F01003C4F8E030D4F834
:103F3800E03003F010030193019BD4F8E03043F024
:103F48004003C4F8E030D4F8E03003F040030293B3
:103F5800029BD4F8F03043F48003C4F8F030D4F86E
:103F6800F03003F480030393039BFFF71BFFD4F89F
:103F7800D830296843F00103084A0C48C4F8D830FF
:103F8800891AD4F8D83018BF012103F0010304932B
:103F9800049B0BB0BDE83040FFF7B4BE04580140A5
:103FA800045C0140004402589CA10024409F002466
:103FB800014802F005BF00BF98A00024014802F0A4
:103FC800FFBE00BF10A10024014802F0F9BE00BFE7
:103FD800F4A20024014802F0F3BE00BF6CA3002441
:103FE8001A4A0368934210B40BD02032934208D087
:103FF800174A934216D02032934213D05DF8044BEF
:104008007047144B0022D3F85442C3F85822002CAE
:10401800F4D0D3F84802D3E9931223465DF8044B51
:10402800520818470B4B0022D3F8B044C3F8B42405
:10403800002CE3D0D3F8AC24D3F8A814D3F8A40404
:10404800520823465DF8044B184700BF0458014046
:10405800045C0140409F0024184A0368934210B44E
:104068000BD02032934208D0154A934217D0203201
:10407800934214D05DF8044B7047124BD3E9942453
:104088005208C3F85822002CF4D0D3E992012346F1
:1040980001EB820100EB82005DF8044B1847094BE5
:1040A800D3F8AC24D3F8B0445208C3F8B424002C95
:1040B800E0D0D3F8A814D3F8A404E8E704580140E2
:1040C800045C0140409F00242DE9F04F0C684FF438
:1040D8001776754F87B004FB06F6012C07EB060A26
:1040E800C0F800A000F3A0800D468E464FF00008EF
:1040F800D44669A3D3E9002369A1D1E90001CDE938
:10410800022306ABCAF8508203EB8403CDE904010D
:1041180053F810BC53F8083CCAE992880193BEE8EA
:104128000F00ACE80F00BEE80F00ACE80F00019BE1
:104138009EE80300CAF828B0CAF8C0308CE803002B
:104148002B69042B0CD8DFE803F0737D87910300FB
:104158004FF41773554A03FB04739A64C3F8E020BD
:10416800AA692B6A002A43D0002B4FF4177308BFA3
:10417800022203FB047318BF0322DA6201221A63C6
:10418800EA696B6A002A40D1191E4FF4177318BFE9
:10419800012103FB0473C3E931126B69022B05D8B3
:1041A800434A12F80380434A52F823904FF4177396
:1041B80006F128004246494603FB047400233844AC
:1041C80063646363E365C4F8DC30C4F8CC30C4F8D6
:1041D800F430C4E90F33C4E91533C4E93533C4E90D
:1041E8003B33022306F0F6FA002849D0FFBEFEE76B
:1041F800191E4FF4177318BF012103FB0473C3E999
:104208000B12EA696B6A002ABED0002B4FF41773B1
:1042180008BF022203FB047318BF0322C3F8C4209B
:104228000122C3F8C820B8E7012007B0BDE8F08F25
:104238004FF417734FF4FA5203FB04739A64C3F8EC
:10424800E0208DE74FF417734FF47A5203FB0473A1
:104258009A64C3F8E02083E74FF417734FF4FA42E7
:1042680003FB04739A64C3F8E02079E74FF41773EB
:104278004BF6803203FB04739A64C3F8E0206FE7BF
:1042880006F1C000022342464946384406F0A2FA25
:104298000028CAD0FFBEFEE704580140045C014074
:1042A80024580140245C0140409F0024007701000D
:1042B80024FC000828FC00080068704770B50468F2
:1042C80082B015460E46C4F85032C4E99212069AD6
:1042D800C4F85422A269012A26D0626A012A9AB235
:1042E80011D0294604F1C000019206F02FFB236A81
:1042F800019A012B10D0294604F1280006F026FB6C
:10430800002002B070BD04F1C000019206F0B0FBBD
:10431800236A019A012BEED1314604F1280006F0F8
:10432800A7FB002002B070BD226A012A9AB211D000
:10433800294604F12800019206F008FB636A019AF5
:10434800012B10D0294604F1C00006F0FFFA002026
:1043580002B070BD04F12800019206F089FB636A7F
:10436800019A012BEED1314604F1C00006F080FB22
:10437800002002B070BD00BF03681B69042B05D87C
:10438800044A02EB830393ED000A70479FED020A8B
:10439800704700BF34FC000800803B470368D3F82F
:1043A80058027047F0B5002387B0022204460493F0
:1043B800CDE9022390F82022D0F824320B2A4FEAC4
:1043C800430525D194F822220B2A02D1002007B0F8
:1043D800F0BD49496B1C494851F8233045780178AC
:1043E800187894F8236288426AD0824278D0D878C4
:1043F80003F1030C81426FD0824279D0987903F19E
:10440800060C884270D0824233D0012007B0F0BD3C
:10441800394B3A4853F8253001784678187894F89B
:1044280021C281423ED0824242D0D87803F1030EA5
:10443800814241D082424BD0987903F1060E8842DE
:1044480042D08242E1D1DB796345DED1734604F57F
:1044580008769B783046059301F05CF803463046B1
:104468001E4601F05FF801A90190304602F0FAFFFC
:10447800A8E7DB79B342C8D1634604F222249B78CB
:104488002046059301F046F8034620461C4601F0F5
:1044980049F8034601A92046019302F0E3FF0020F2
:1044A80007B0F0BD93F801E0B645BED08242BCD15A
:1044B80058786045B9D1CAE71F79B742BAD1BBE786
:1044C8005F78AF4291D192E7D979B142B9D19CE7EF
:1044D80018796045B0D1B9E71F79AF428CD18DE723
:1044E8005878B04283D1C8E7D979A9428BD18CE7F3
:1044F8001879B04282D1BFE7700000246C00002414
:10450800826F12682DE9F0415268C0B0D0E9423498
:10451800591E9A1A1C1B0A401444B4FBF3F103FBFE
:104528001144A34248D3D0F810610546D6F80031AB
:10453800D6F80411013B5B1AD6F80411DBB2A3428A
:1045480094BFC9180919C6F80411D6F80431B3F58F
:10455800807F05D9D6F80431A3F58073C6F80431F5
:10456800C5F80C21D6F80021A718B7F5807F24D903
:10457800C2F58078B118D2F5807223D1444502D0B3
:10458800B4EB080222D1FFB205F58C78C6F80071A9
:10459800D5F81C022618B6F5807F8CBFC0F5807749
:1045A8002746CFB9BC4201D0E21B1BD1F6B2C5F8F1
:1045B8001C6240B0BDE8F081FEE7B1182246002C2D
:1045C800E1D0A04668460BF0A9FAD7E70DEB080042
:1045D80031460BF0A3FAD6E740443A4669460BF059
:1045E8009DFADFE70DEB0701F6B240460BF096FAAD
:1045F800C5F81C6240B0BDE8F08100BF214A0368DD
:10460800D0F88810934228D0A2F54C42934226D085
:1046180002F58062934224D002F58062934222D050
:1046280002F58062934220D002F5444293421ED0A4
:10463800A2F51C4293421CD002F5806293421AD024
:10464800114A934219D10822104B4FF40F700021E0
:1046580000FB023383F8141170470022F4E70122AB
:10466800F2E70222F0E70322EEE70422ECE7052254
:10467800EAE70622E8E70722E6E7002383F8143191
:10468800FFDE00BF00100140000C0058F8A3002412
:104698009C4A036893422DE9F04104468EB000F02D
:1046A800F380A2F54C42934200F0F08002F580625C
:1046B800934200F0EF8002F58062934200F0E880B8
:1046C80002F58062934200F0E78002F5444293428B
:1046D80000F0E480A2F51C42934200F00C8102F540
:1046E8008062934200F00581874A934240F0058139
:1046F80008264FF40F78854F08FB06F807EB0805E6
:1047080095F8220200F016FF95F8200200F012FF3B
:10471800D5F82432082B13D8DFE803F0293745539E
:10472800616F7D8B05007A4BD3F8F42042F00802C4
:10473800C3F8F420D3F8F43003F008030893089B77
:104748002846FFF72FFE01280FD04FF40F756D4A4A
:1047580006FB05F57B597E19934278D01A6842F01A
:1047680010021A600EB0BDE8F081FFBEFEE7684B8C
:10477800D3F8F02042F01002C3F8F020D3F8F0305C
:1047880003F010030093009BDAE7614BD3F8E820AD
:1047980042F40032C3F8E820D3F8E83003F40033D9
:1047A8000193019BCCE75A4BD3F8E82042F48022CE
:1047B800C3F8E820D3F8E83003F480230293029B7F
:1047C800BEE7534BD3F8E82042F40022C3F8E820B0
:1047D800D3F8E83003F400230393039BB0E74C4B72
:1047E800D3F8E82042F48012C3F8E820D3F8E83080
:1047F80003F480130493049BA2E7454BD3F8F020FD
:1048080042F02002C3F8F020D3F8F03003F0200380
:104818000593059B94E73E4BD3F8E82042F080428D
:10482800C3F8E820D3F8E83003F080430693069BEA
:1048380086E7374BD3F8E82042F00042C3F8E82077
:10484800D3F8E83003F000430793079B78E7002389
:10485800304A08F18C08C6E92533C6E92833C6E989
:104868002B332923B844C6E923234FF480634046F9
:10487800C6F89C304FF48073C6F8A83001F028FFC2
:10488800844668B1FFBEFEE7002632E7012630E71E
:1048980003262EE702262CE704262AE7052628E722
:1048A800C4F878800EA9D6F88C20D6F82432DFF820
:1048B80068E001EB43081368C6F8C44009AC23F06C
:1048C80008031360BEE80F000FC4DEF8003062462C
:1048D8006146238038F9140C01F048FDD6F82432DB
:1048E8000EAA02EB430333F9140C01F07DFD7B594A
:1048F80034E70726FDE60626FBE6002393F8223276
:10490800FFDE00BF00100140000C0058F8A300248F
:10491800004402588800024068FB000810B5264C85
:10492800204606F01DFA2368DA69D10600D410BDC6
:10493800224A93422FD0A2F54C4293422DD002F541
:10494800806293422BD002F58062934229D002F50F
:104958008062934227D002F54442934225D0A2F5C3
:104968001C42934223D002F58062934221D0144A1C
:1049780093420AD00020DA69D20602D410221A62C1
:1049880010BDFFF7BDFD2368F8E708204FF40F724C
:1049980002FB0040EFE70020F8E70120F6E70220DD
:1049A800F4E70320F2E70420F0E70520EEE706200D
:1049B800ECE70720EAE700BFF8A300240010014055
:1049C800000C005810B5274C04F50F7006F0C8F914
:1049D800D4F83C32DA69D10600D410BD224A934299
:1049E80030D0A2F54C4293422ED002F58062934219
:1049F8002CD002F5806293422AD002F5806293425D
:104A080028D002F54442934226D0A2F51C42934294
:104A180024D002F58062934222D0144A93420BD0EC
:104A28000020DA69D20602D410221A6210BDFFF7FC
:104A380067FDD4F83C32F7E708204FF40F7202FB09
:104A48000040EEE70020F8E70120F6E70220F4E74F
:104A58000320F2E70420F0E70520EEE70620ECE764
:104A68000720EAE7F8A3002400100140000C0058D2
:104A780010B5274C04F58F6006F072F9D4F8783435
:104A8800DA69D10600D410BD224A934230D0A2F58B
:104A98004C4293422ED002F5806293422CD002F50C
:104AA800806293422AD002F58062934228D002F5B0
:104AB8004442934226D0A2F51C42934224D002F5E8
:104AC8008062934222D0144A93420BD00020DA69C4
:104AD800D20602D410221A6210BDFFF711FDD4F8D5
:104AE8007834F7E708204FF40F7202FB0040EEE736
:104AF8000020F8E70120F6E70220F4E70320F2E7B8
:104B08000420F0E70520EEE70620ECE70720EAE7B7
:104B1800F8A3002400100140000C005810B5274CE1
:104B280004F2B46006F01CF9D4F8B436DA69D10698
:104B380000D410BD224A934230D0A2F54C42934291
:104B48002ED002F5806293422CD002F58062934207
:104B58002AD002F58062934228D002F5444293425B
:104B680026D0A2F51C42934224D002F580629342DB
:104B780022D0144A93420BD00020DA69D20602D41C
:104B880010221A6210BDFFF7BBFCD4F8B436F7E761
:104B980008204FF40F7202FB0040EEE70020F8E710
:104BA8000120F6E70220F4E70320F2E70420F0E70B
:104BB8000520EEE70620ECE70720EAE7F8A3002443
:104BC80000100140000C005810B5274C04F50F6088
:104BD80006F0C6F8D4F8F038DA69D10600D410BD6A
:104BE800224A934230D0A2F54C4293422ED002F58D
:104BF800806293422CD002F5806293422AD002F55B
:104C08008062934228D002F54442934226D0A2F50E
:104C18001C42934224D002F58062934222D0144A67
:104C280093420BD00020DA69D20602D410221A620D
:104C380010BDFFF765FCD4F8F038F7E708204FF40B
:104C48000F7202FB0040EEE70020F8E70120F6E7CC
:104C58000220F4E70320F2E70420F0E70520EEE75E
:104C68000620ECE70720EAE7F8A30024001001403B
:104C7800000C005810B5274C04F62C3006F070F8DC
:104C8800D4F82C3BDA69D10600D410BD224A9342ED
:104C980030D0A2F54C4293422ED002F58062934266
:104CA8002CD002F5806293422AD002F580629342AA
:104CB80028D002F54442934226D0A2F51C429342E2
:104CC80024D002F58062934222D0144A93420BD03A
:104CD8000020DA69D20602D410221A6210BDFFF74A
:104CE8000FFCD4F82C3BF7E708204FF40F7202FBB7
:104CF8000040EEE70020F8E70120F6E70220F4E79D
:104D08000320F2E70420F0E70520EEE70620ECE7B1
:104D18000720EAE7F8A3002400100140000C00581F
:104D280010B5274C04F6685006F01AF8D4F8683D18
:104D3800DA69D10600D410BD224A934230D0A2F5D8
:104D48004C4293422ED002F5806293422CD002F559
:104D5800806293422AD002F58062934228D002F5FD
:104D68004442934226D0A2F51C42934224D002F535
:104D78008062934222D0144A93420BD00020DA6911
:104D8800D20602D410221A6210BDFFF7B9FBD4F87C
:104D9800683DF7E708204FF40F7202FB0040EEE78A
:104DA8000020F8E70120F6E70220F4E70320F2E705
:104DB8000420F0E70520EEE70620ECE70720EAE705
:104DC800F8A3002400100140000C005810B5274C2F
:104DD80004F6A47005F0C4FFD4F8A43FDA69D1063C
:104DE80000D410BD224A934230D0A2F54C429342DF
:104DF8002ED002F5806293422CD002F58062934255
:104E08002AD002F58062934228D002F544429342A8
:104E180026D0A2F51C42934224D002F58062934228
:104E280022D0144A93420BD00020DA69D20602D469
:104E380010221A6210BDFFF763FBD4F8A43FF7E70E
:104E480008204FF40F7202FB0040EEE70020F8E75D
:104E58000120F6E70220F4E70320F2E70420F0E758
:104E68000520EEE70620ECE70720EAE7F8A3002490
:104E780000100140000C005810B5284C04F5F070E3
:104E880005F06EFFD4F8E031DA69D10600D410BD20
:104E9800234A934231D0A2F54C4293422FD002F5D7
:104EA800806293422DD002F5806293422BD002F5A6
:104EB8008062934229D002F54442934227D0A2F55A
:104EC8001C42934225D002F58062934223D0154AB2
:104ED80093420BD00020DA69D20602D410221A625B
:104EE80010BDFFF70DFBD4F8E031F7E708224FF4C7
:104EF8000F710D4801FB0200EDE70022F7E70122E0
:104F0800F5E70222F3E70322F1E70422EFE705229F
:104F1800EDE70622EBE70722E9E700BFF8B3002434
:104F280000100140000C0058F8A30024014801F0CB
:104F380047BF00BF84A400242DE9F0414FF40F734C
:104F4800D1F80480374E8E4603FB08F70C46B8F1BB
:104F5800080F07EB0605056005F5087CBEE80F009D
:104F6800ACE80F009EE807008CE8070003D8D5F8E6
:104F78002C32022B02D90120BDE8F081D5F8282275
:104F8800032AF8D8D5F830120229F4D8D5F834C253
:104F9800BCF1020FEFD801312348890050F82800EE
:104FA800B851A069696121496860284651F82330E1
:104FB8002B611F4B53F82230EB601E4B53F82C30FB
:104FC800AB600023C5E90633C5E90833AB6207F0D7
:104FD800AFFA0028CFD10146284607F001FB002888
:104FE800C9D10146284607F049FB0028C3D1284605
:104FF80007F0D8FA02460028BDD10F494FF4807057
:10500800F319C1F80421C5F808011046C1F80021B8
:10501800C5F81011A3F81421C5F81C22C5F81822E8
:10502800AAE700BFF8A3002448FC00086CFC0008AD
:1050380078FC000888FC0008404100303D4B3E49A0
:105048001A883E48DFF824C12DE9F0473C4C3D4D15
:10505800CA80A1F80320C280A4F80320EA80E28075
:10506800A0F803201E689B784FEA164EDFF80091DF
:105078000B724B7134490372CA800B72A1F803207A
:105088004B7132494371CA8031480B723149DFF89C
:10509800E480314FDFF8E0A02B7263712F4D23724B
:1050A800C2802F4C0372CA802E480B722E492E8064
:1050B80085F802E0A5F80320AAF806208AF8083047
:1050C8006B71EA802B72A9F8032089F80530A9F8DA
:1050D800062089F80830A8F8032088F80530A8F8D1
:1050E800062088F80830268084F802E0A4F8032017
:1050F8006371E280237206800E8080F802E081F8F6
:1051080002E0A0F803204371C2800372A1F80320D3
:105118004B71CA800B72ACF803208CF80530ACF8E0
:1051280006208CF80830A7F803207B71FA803B72C0
:10513800BDE8F0876C0000240C0100243001002435
:10514800180100240001002424010024B8000024D0
:10515800C4000024DC0000245400002438B80024D3
:1051680014B800242CB8002420B8002460000024BF
:105178003C010024E8000024F4000024704700BF2C
:1051880008B500F0D7FABDE8084001F0B7B900BF8C
:10519800704700BF00F0DABA00F0DEBA2DE9F0413E
:1051A800CEB004464C2200210AA80AF0C5FC2022F1
:1051B800002102A80AF0C0FCBC2200211EA80AF0A7
:1051C800BBFC022002F082FE2368012B4FF0000393
:1051D80054D0534A02250193C820D16A514B21F07B
:1051E8000101D162D26A02F0010201929A6942F485
:1051F80040429A619B6903F440430193019B494AE9
:1052080093699B04FCD548490224002201268B6A35
:1052180004274FF0080823F0030323438B62052378
:1052280016900AA818934FF480331096179419947F
:105238001597CDF86880CDE91B222122CDE91344CA
:10524800CDE90A2303F02CFB00B1FEE73F2203233C
:10525800294602A8CDE9022300220823CDE9042328
:1052680040224023CDE9062340234FF48062CDE954
:10527800082303F043FE0346B8B1FEE7294A042594
:105288000093F0209169264B41F440419161926965
:1052980002F440420092DA6A42F00102DA62DB6A02
:1052A80003F001030093009BA9E720224FF48051EB
:1052B80025934FF440152B9280222D931EA83093EE
:1052C800269135914FF48071249234920C223394B4
:1052D800439140F2271120921022CDF884802A971A
:1052E8001F96CDE92E34CDE93B334FF48033CDE919
:1052F80022463193002446930623CDE93E45279361
:105308004FF48063094C2C931E94CDE9281204F0C5
:1053180051F800B1FEE702F0FFFD4EB0BDE8F081A4
:105328000004005800480258004402580F130F03A5
:105338002DE9F0410D46044684B0D1E9000184E826
:10534800030000F0C7F9AE797EB36F4608F0A4F801
:10535800FEF788F807F0EAFD2B79002B4ED16B7920
:105368009BB1BFF34F8FBFF36F8F394B0022C3F848
:105378005022BFF34F8FBFF36F8F5A6942F4003248
:105388005A61BFF34F8FBFF36F8F00220023394656
:105398003048CDE9002308F013F82E4808F072F8D9
:1053A80007F09CFA04B0BDE8F08120466F46FFF78D
:1053B800F5FE012401F050F84FF040534FF4807887
:1053C80038460193244BADF80040CDE9023801F08E
:1053D80061F819224FF0404338468DF80F40ADF878
:1053E8000D808DF801408DF80A608DF80820019332
:1053F80001F050F8042001F03DF8A7E7144C002311
:10540800C4F88430BFF34F8FD4F8803043F6E07E81
:10541800C3F3C906C3F34E334FEA431C0CEA0E002C
:10542800334640EA8372013BC4F860225A1CF8D123
:10543800ACF1200C1CF1200FF0D1BFF34F8F636942
:1054480043F480336361BFF34F8FBFF36F8F86E7F9
:1054580000ED00E044B800240E00010303F07EBE16
:105468001C4B9B6803F17842B2F5003F25D3B3F596
:10547800803F20D303F16042B2F5003F1FD303F110
:105488005C42B2F5002F1CD303F17042B2F5902FA5
:1054980019D303F14842B2F5803F16D303F1804295
:1054A800B2F1806F13D303F1E043B3F5000F2CBFC3
:1054B800082007207047012070470020704702200D
:1054C8007047032070470420704705207047062066
:1054D800704700BF00ED00E003480023034A044979
:1054E800036009F055B800BF44B800240000002448
:1054F80085510008064B01EB410103EB8101D1F80E
:1055080000C04A688B68C0F800C04260836070477A
:1055180094FC0008024B027853F82200704700BF41
:1055280014FD0008024B427833F81200704700BFA0
:10553800F4FC00088CB00A2814D8DFE800F0152322
:10554800313F4D5B6977859306004D4BD3F8E020DA
:1055580042F48062C3F8E020D3F8E03003F48063BB
:105568000B930B9B0CB07047454BD3F8E02042F0EF
:105578000102C3F8E020D3F8E03003F001030193FF
:10558800019BEFE73E4BD3F8E02042F00202C3F85C
:10559800E020D3F8E03003F002030293029BE1E736
:1055A800374BD3F8E02042F00402C3F8E020D3F8E8
:1055B800E03003F004030393039BD3E7304BD3F8A5
:1055C800E02042F00802C3F8E020D3F8E03003F00E
:1055D80008030493049BC5E7294BD3F8E02042F065
:1055E8001002C3F8E020D3F8E03003F0100305936D
:1055F800059BB7E7224BD3F8E02042F02002C3F81E
:10560800E020D3F8E03003F020030693069BA9E7D7
:105618001B4BD3F8E02042F04002C3F8E020D3F857
:10562800E03003F040030793079B9BE7144BD3F844
:10563800E02042F08002C3F8E020D3F8E03003F025
:1056480080030893089B8DE70D4BD3F8E02042F4C4
:105658008072C3F8E020D3F8E03003F48073099334
:10566800099B7FE7064BD3F8E02042F40072C3F8A9
:10567800E020D3F8E03003F400730A930A9B71E743
:1056880000440258704700BF0F4B1B780BB901202C
:10569800704710B504464FF47A700C4AB0FBF3F328
:1056A8001068B0FBF3F000F0C1FE0F2C00D808B171
:1056B800012010BD002221464FF0FF3000F056FEB9
:1056C800034B00201C6010BD450100240400002489
:1056D8004801002438B50320124D00F035FE124C65
:1056E80003F06CFB114A12499369C3F30323CB5CA3
:1056F80003F01F0320FA03F30F202B60926902F0D6
:105708000F028A5C02F01F02D3402360FFF7BCFF40
:1057180010B10124204638BD0446FFF7B3FF2046E8
:1057280038BD00BF040000240800002400440258CB
:1057380094FB0008034A044B11681B780B44136060
:10574800704700BF48B8002445010024014B186881
:10575800704700BF48B8002438B50446FFF7F6FF85
:105768000546631C02D0044B1B781C44FFF7EEFF70
:10577800431BA342FAD338BD45010024014B1868E6
:10578800000C70470010005C704700BF806B08B5C4
:10579800FFF7FAFF08BD00BF836B5A6D12F0500F78
:1057A8005A6D10B51DD1196842F400725A650A681D
:1057B80012F0080FCA681BD012F4406F0DD1CA68E6
:1057C80094040AD45A6D22F480725A655A6DD10431
:1057D80003D45A6D42F001025A651846FDF79AFB48
:1057E80010BDD2060AD4DB6CBDE81040DB6C18474C
:1057F8009007E7D01846FDF78DFBF1E71846FDF74F
:105808002DFC10BD806B08B5436D43F04003436524
:10581800836D43F004038365FDF720FC08BD00BFDA
:10582800F0B5002283B0019290F85020012A00F0D0
:105838001C81034601201A6883F8500094686407A5
:1058480000F18A800C68C4F31305002D40F08F80A6
:10585800C4F38464A0404D684FF01F0ED6694FEA28
:10586800951C30430CF00C0CD06105F01F0002F1C0
:10587800300584400EFA00FE5CF8050020EA0E00B0
:1058880004434CF80540906840076ED4956815F0BD
:10589800080547D10C68072002F11406B94F4FEAF2
:1058A800D45CC4F304540CF0040C00FA04FE8868B9
:1058B80000FA04F45CF8060020EA0E0020434CF8D5
:1058C8000600386800F07040B0F1805F00F0C580D5
:1058D800D068D668C70600F1E880C6F38206486932
:1058E800760000FA06F60F69042F00F0C18002F175
:1058F8006004086854F827C000F0F8400CF0004C29
:1059080040EA0C00304344F82700487E0E6901281D
:1059180054F8260008BF4FF0004520F0004005432A
:1059280044F826509068C40714D4CE68086806F076
:105938001807954CD2F8C050FC40C0F31307044038
:1059480025EA07052C43C2F8C040904CA64246D031
:10595800002816DB002003E05A6D42F020025A6549
:10596800002283F8502003B0F0BD9068DAE794FA7B
:10597800A4F5B5FA85F5C4F3846405F01F05A840BD
:1059880069E783498A4200F0B68001F580718A424E
:1059980000F0B1807F4D804CA968A46801F0E076E2
:1059A800E44304F00104002C00F0B4807B4CA042D6
:1059B80000F0FC807A4CA04200F01A81794CA04299
:1059C800C8D14902C6D474498A42C3D1AA68002002
:1059D80022F0E072324342F48002AA60C0E7002F4E
:1059E8006AD090FAA0F4B4FA84F4013404F01F04E5
:1059F800092C00F2A48090FAA0F4B4FA84F490FA86
:105A0800A0F5B5FA85F5013401260135A40605F09F
:105A18001F0504F0F84406FA05F52C4390FAA0F0A7
:105A2800B0FA80F0304400F01F0000EB40000005A1
:105A38002043C60D02F11405C0F30450072406F0F4
:105A4800040604FA00F7745924EA07048F6807FA71
:105A580000F02043705108687AE7D6684869C6F3B1
:105A68008206760000FA06F63DE7022003B0F0BD94
:105A7800106E0C6800F0F840A506B0EB846F30D0CB
:105A8800506E00F0F840854226D0906E00F0F84045
:105A980085422BD0D06E00F0F84085427FF442AFAB
:105AA800D06E20F00040D0663CE77608486906F0E2
:105AB800080600FA06F616E7800E441C04F01F06D6
:105AC800092E2DD8A406012004F0F844B040044360
